:020000040000fa
:080000000002040000000000f2
:020000040000fa
:04000800ce02000024
:020000040000fa
:04000c00ce02000020
:020000040000fa
:04001000ce0200001c
:020000040000fa
:04001400ce02000018
:020000040000fa
:04001800ce02000014
:020000040000fa
:04001c00ce02000010
:020000040000fa
:04002000ce0200000c
:020000040000fa
:04002400ce02000008
:020000040000fa
:04002800ce02000004
:020000040000fa
:04002c00ce02000000
:020000040000fa
:04003000ce020000fc
:020000040000fa
:04003400ce020000f8
:020000040000fa
:04003800ce020000f4
:020000040000fa
:04003c00ce020000f0
:020000040000fa
:04004000ce020000ec
:020000040000fa
:04004400ce020000e8
:020000040000fa
:04004800ce020000e4
:020000040000fa
:04004c00ce020000e0
:020000040000fa
:04005000ce020000dc
:020000040000fa
:04005400ce020000d8
:020000040000fa
:04005800ce020000d4
:020000040000fa
:04005c00ce020000d0
:020000040000fa
:04006000ce020000cc
:020000040000fa
:04006400ce020000c8
:020000040000fa
:04006800ce020000c4
:020000040000fa
:04006c00ce020000c0
:020000040000fa
:04007000ce020000bc
:020000040000fa
:04007400ce020000b8
:020000040000fa
:04007800ce020000b4
:020000040000fa
:04007c00ce020000b0
:020000040000fa
:04008000ce020000ac
:020000040000fa
:04008400ce020000a8
:020000040000fa
:04008800ce020000a4
:020000040000fa
:04008c00ce020000a0
:020000040000fa
:04009000ce0200009c
:020000040000fa
:04009400ce02000098
:020000040000fa
:04009800ce02000094
:020000040000fa
:04009c00ce02000090
:020000040000fa
:0400a000ce0200008c
:020000040000fa
:0400a400ce02000088
:020000040000fa
:0400a800ce02000084
:020000040000fa
:0400ac00c802000086
:020000040000fa
:0400b000ce0200007c
:020000040000fa
:0400b400ce02000078
:020000040000fa
:0400b800ce02000074
:020000040000fa
:0400bc00ce02000070
:020000040000fa
:0400c000ce0200006c
:020000040000fa
:0400c400ce02000068
:020000040000fa
:0400c800ce02000064
:020000040000fa
:0400cc00ce02000060
:020000040000fa
:0400d000ce0200005c
:020000040000fa
:0400d400ce02000058
:020000040000fa
:0400d800ce02000054
:020000040000fa
:0400dc00ce02000050
:020000040000fa
:0400e000ce0200004c
:020000040000fa
:0400e400ce02000048
:020000040000fa
:0400e800ce02000044
:020000040000fa
:0400ec00ce02000040
:020000040000fa
:0400f000ce0200003c
:020000040000fa
:0400f400ce02000038
:020000040000fa
:0400f800ce02000034
:020000040000fa
:0400fc00ce02000030
:020000040000fa
:04010000ce0200002b
:020000040000fa
:04010400ce02000027
:020000040000fa
:04010800ce02000023
:020000040000fa
:04010c00ce0200001f
:020000040000fa
:04011000ce0200001b
:020000040000fa
:04011400ce02000017
:020000040000fa
:04011800ce02000013
:020000040000fa
:04011c00ce0200000f
:020000040000fa
:04012000ce0200000b
:020000040000fa
:04012400ce02000007
:020000040000fa
:04012800ce02000003
:020000040000fa
:04012c00ce020000ff
:020000040000fa
:04013000ce020000fb
:020000040000fa
:04013400ce020000f7
:020000040000fa
:04013800ce020000f3
:020000040000fa
:04013c00ce020000ef
:020000040000fa
:04014000ce020000eb
:020000040000fa
:04020800ce02000022
:020000040000fa
:04020c00ce0200001e
:020000040000fa
:04021000ce0200001a
:020000040000fa
:04021400ce02000016
:020000040000fa
:04021800ce02000012
:020000040000fa
:04021c00ce0200000e
:020000040000fa
:04022000ce0200000a
:020000040000fa
:04022400ce02000006
:020000040000fa
:04022800ce02000002
:020000040000fa
:04022c00ce020000fe
:020000040000fa
:04023000ce020000fa
:020000040000fa
:04023400ce020000f6
:020000040000fa
:04023800ce020000f2
:020000040000fa
:04023c00ce020000ee
:020000040000fa
:04024000ce020000ea
:020000040000fa
:04024400ce020000e6
:020000040000fa
:04024800ce020000e2
:020000040000fa
:04024c00ce020000de
:020000040000fa
:04025000ce020000da
:020000040000fa
:04025400ce020000d6
:020000040000fa
:04025800ce020000d2
:020000040000fa
:04025c00ce020000ce
:020000040000fa
:04026000ce020000ca
:020000040000fa
:04026400ce020000c6
:020000040000fa
:04026800ce020000c2
:020000040000fa
:04026c00ce020000be
:020000040000fa
:04027000ce020000ba
:020000040000fa
:04027400ce020000b6
:020000040000fa
:04027800ce020000b2
:020000040000fa
:04027c00ce020000ae
:020000040000fa
:04028000ce020000aa
:020000040000fa
:04028400ce020000a6
:020000040000fa
:04028800ce020000a2
:020000040000fa
:04028c00ce0200009e
:020000040000fa
:04029000ce0200009a
:020000040000fa
:04029400ce02000096
:020000040000fa
:04029800ce02000092
:020000040000fa
:04029c00ce0200008e
:020000040000fa
:0402a000ce0200008a
:020000040000fa
:0402a400ce02000086
:020000040000fa
:0402a800ce02000082
:020000040000fa
:0402ac00ce0200007e
:020000040000fa
:0402b000ce0200007a
:020000040000fa
:0402b400ce02000076
:020000040000fa
:0402b800ce02000072
:020000040000fa
:0402bc00ce0200006e
:020000040000fa
:0402c000ce0200006a
:020000040000fa
:0402c400ce02000066
:020000040000fa
:0402c800ce02000062
:020000040000fa
:0402cc00ce0200005e
:020000040000fa
:0402d000ce0200005a
:020000040000fa
:0402d400ce02000056
:020000040000fa
:0402d800ce02000052
:020000040000fa
:0402dc00ce0200004e
:020000040000fa
:0402e000ce0200004a
:020000040000fa
:0402e400ce02000046
:020000040000fa
:0402e800ce02000042
:020000040000fa
:0402ec00ce0200003e
:020000040000fa
:0402f000ce0200003a
:020000040000fa
:0402f400ce02000036
:020000040000fa
:0402f800ce02000032
:020000040000fa
:0402fc00ce0200002e
:020000040000fa
:04030000ce02000029
:020000040000fa
:04030400ce02000025
:020000040000fa
:04030800ce02000021
:020000040000fa
:04030c00ce0200001d
:020000040000fa
:04031000ce02000019
:020000040000fa
:04031400ce02000015
:020000040000fa
:04031800ce02000011
:020000040000fa
:04031c00ce0200000d
:020000040000fa
:04032000ce02000009
:020000040000fa
:04032400ce02000005
:020000040000fa
:04032800ce02000001
:020000040000fa
:04032c00ce020000fd
:020000040000fa
:04033000ce020000f9
:020000040000fa
:04033400ce020000f5
:020000040000fa
:04033800ce020000f1
:020000040000fa
:04033c00ce020000ed
:020000040000fa
:04034000ce020000e9
:020000040000fa
:100400002f8020000e7f24000e01880000000000d5
:10041000000020000000e000020032000001200087
:1004200020028800140007005e0007000000e000c2
:1004300003003a00602e2000010020000200370077
:100440000000200001002000810f70000100320038
:1004500014000700000020000000e000020032004d
:100460000000020000000000d402020000000000b2
:100470000040da000000fe004440a9000000200017
:100480000000e0000300320000002000a00188000e
:100490004440a800000006008a1f78008b1f7800e7
:1004a0000000060091018800800478000000eb0045
:1004b0001a003700e284440032a0b4009905ba0063
:1004c000e284440032a0b4009906ba00e2844400f9
:1004d00032a0b4000006eb00476fde00fd07b2005b
:1004e000636ce10003003a00ebff07000000eb0043
:1004f0000a003700606ce10004003a00005deb0088
:100500008b05e900fdff3e00040037006168e10053
:10051000010032000086eb000b00070019c7ba008b
:100520001905ba000e04e00003003a000a00e000da
:10053000e0ff3a0000000600fe07b2009e018800be
:100540008a047800f5ff3700395dba008b05e900b1
:100550000c003200295dba008b05e900080032006a
:100560000c00e00003003a00e284440032a0b40032
:10057000f5ff370019ddba008b05e900faff3a00f4
:100580008904e800e184440032a0b40000000600c1
:100590000000fa000080fa00004006000040da0087
:0805a0000000fe000000050050
:020000040000fa
:1005a8000000fa0062e2a800000828001013880082
:1005b8000000280000138800e422ef000080fa0001
:0405c8000000060029
:020000040000fa
:1005cc0000080000020000000200000014000000ff
:0405dc00000000001b
:020000040000fa
:0200000401f009
:04000800ffff0000f6
:020000040000fa
:0200000401f009
:04000c007bff000076
:020000040000fa
:0200000401f009
:040010003eff0000af
:020000040000fa
:0200000401f009
:040014007fff00006a
:00000001FF
