:020000040000fa
:080000000002040000000000f2
:020000040000fa
:04000800ea02000008
:020000040000fa
:04000c00ea02000004
:020000040000fa
:04001000ea02000000
:020000040000fa
:04001400ea020000fc
:020000040000fa
:04001800ea020000f8
:020000040000fa
:04001c00ea020000f4
:020000040000fa
:04002000ea020000f0
:020000040000fa
:04002400ea020000ec
:020000040000fa
:04002800ea020000e8
:020000040000fa
:04002c00ea020000e4
:020000040000fa
:04003000ea020000e0
:020000040000fa
:04003400ea020000dc
:020000040000fa
:04003800ea020000d8
:020000040000fa
:04003c00ea020000d4
:020000040000fa
:04004000ea020000d0
:020000040000fa
:04004400ea020000cc
:020000040000fa
:04004800ea020000c8
:020000040000fa
:04004c00ea020000c4
:020000040000fa
:04005000ea020000c0
:020000040000fa
:04005400ea020000bc
:020000040000fa
:04005800ea020000b8
:020000040000fa
:04005c00ea020000b4
:020000040000fa
:04006000ea020000b0
:020000040000fa
:04006400ea020000ac
:020000040000fa
:04006800ea020000a8
:020000040000fa
:04006c00ea020000a4
:020000040000fa
:04007000ea020000a0
:020000040000fa
:04007400ea0200009c
:020000040000fa
:04007800ea02000098
:020000040000fa
:04007c00ea02000094
:020000040000fa
:04008000ea02000090
:020000040000fa
:04008400ea0200008c
:020000040000fa
:04008800ea02000088
:020000040000fa
:04008c00ea02000084
:020000040000fa
:04009000ea02000080
:020000040000fa
:04009400ea0200007c
:020000040000fa
:04009800ea02000078
:020000040000fa
:04009c00ea02000074
:020000040000fa
:0400a000ea02000070
:020000040000fa
:0400a400ea0200006c
:020000040000fa
:0400a800ea02000068
:020000040000fa
:0400ac00c802000086
:020000040000fa
:0400b000ea02000060
:020000040000fa
:0400b400ea0200005c
:020000040000fa
:0400b800ea02000058
:020000040000fa
:0400bc00ea02000054
:020000040000fa
:0400c000ea02000050
:020000040000fa
:0400c400ea0200004c
:020000040000fa
:0400c800ea02000048
:020000040000fa
:0400cc00ea02000044
:020000040000fa
:0400d000ea02000040
:020000040000fa
:0400d400ea0200003c
:020000040000fa
:0400d800ea02000038
:020000040000fa
:0400dc00ea02000034
:020000040000fa
:0400e000ea02000030
:020000040000fa
:0400e400ea0200002c
:020000040000fa
:0400e800ea02000028
:020000040000fa
:0400ec00ea02000024
:020000040000fa
:0400f000ea02000020
:020000040000fa
:0400f400ea0200001c
:020000040000fa
:0400f800ea02000018
:020000040000fa
:0400fc00ea02000014
:020000040000fa
:04010000ea0200000f
:020000040000fa
:04010400ea0200000b
:020000040000fa
:04010800ea02000007
:020000040000fa
:04010c00ea02000003
:020000040000fa
:04011000ea020000ff
:020000040000fa
:04011400ea020000fb
:020000040000fa
:04011800ea020000f7
:020000040000fa
:04011c00ea020000f3
:020000040000fa
:04012000ea020000ef
:020000040000fa
:04012400ea020000eb
:020000040000fa
:04012800ea020000e7
:020000040000fa
:04012c00ea020000e3
:020000040000fa
:04013000ea020000df
:020000040000fa
:04013400ea020000db
:020000040000fa
:04013800ea020000d7
:020000040000fa
:04013c00ea020000d3
:020000040000fa
:04014000ea020000cf
:020000040000fa
:04020800ea02000006
:020000040000fa
:04020c00ea02000002
:020000040000fa
:04021000ea020000fe
:020000040000fa
:04021400ea020000fa
:020000040000fa
:04021800ea020000f6
:020000040000fa
:04021c00ea020000f2
:020000040000fa
:04022000ea020000ee
:020000040000fa
:04022400ea020000ea
:020000040000fa
:04022800ea020000e6
:020000040000fa
:04022c00ea020000e2
:020000040000fa
:04023000ea020000de
:020000040000fa
:04023400ea020000da
:020000040000fa
:04023800ea020000d6
:020000040000fa
:04023c00ea020000d2
:020000040000fa
:04024000ea020000ce
:020000040000fa
:04024400ea020000ca
:020000040000fa
:04024800ea020000c6
:020000040000fa
:04024c00ea020000c2
:020000040000fa
:04025000ea020000be
:020000040000fa
:04025400ea020000ba
:020000040000fa
:04025800ea020000b6
:020000040000fa
:04025c00ea020000b2
:020000040000fa
:04026000ea020000ae
:020000040000fa
:04026400ea020000aa
:020000040000fa
:04026800ea020000a6
:020000040000fa
:04026c00ea020000a2
:020000040000fa
:04027000ea0200009e
:020000040000fa
:04027400ea0200009a
:020000040000fa
:04027800ea02000096
:020000040000fa
:04027c00ea02000092
:020000040000fa
:04028000ea0200008e
:020000040000fa
:04028400ea0200008a
:020000040000fa
:04028800ea02000086
:020000040000fa
:04028c00ea02000082
:020000040000fa
:04029000ea0200007e
:020000040000fa
:04029400ea0200007a
:020000040000fa
:04029800ea02000076
:020000040000fa
:04029c00ea02000072
:020000040000fa
:0402a000ea0200006e
:020000040000fa
:0402a400ea0200006a
:020000040000fa
:0402a800ea02000066
:020000040000fa
:0402ac00ea02000062
:020000040000fa
:0402b000ea0200005e
:020000040000fa
:0402b400ea0200005a
:020000040000fa
:0402b800ea02000056
:020000040000fa
:0402bc00ea02000052
:020000040000fa
:0402c000ea0200004e
:020000040000fa
:0402c400ea0200004a
:020000040000fa
:0402c800ea02000046
:020000040000fa
:0402cc00ea02000042
:020000040000fa
:0402d000ea0200003e
:020000040000fa
:0402d400ea0200003a
:020000040000fa
:0402d800ea02000036
:020000040000fa
:0402dc00ea02000032
:020000040000fa
:0402e000ea0200002e
:020000040000fa
:0402e400ea0200002a
:020000040000fa
:0402e800ea02000026
:020000040000fa
:0402ec00ea02000022
:020000040000fa
:0402f000ea0200001e
:020000040000fa
:0402f400ea0200001a
:020000040000fa
:0402f800ea02000016
:020000040000fa
:0402fc00ea02000012
:020000040000fa
:04030000ea0200000d
:020000040000fa
:04030400ea02000009
:020000040000fa
:04030800ea02000005
:020000040000fa
:04030c00ea02000001
:020000040000fa
:04031000ea020000fd
:020000040000fa
:04031400ea020000f9
:020000040000fa
:04031800ea020000f5
:020000040000fa
:04031c00ea020000f1
:020000040000fa
:04032000ea020000ed
:020000040000fa
:04032400ea020000e9
:020000040000fa
:04032800ea020000e5
:020000040000fa
:04032c00ea020000e1
:020000040000fa
:04033000ea020000dd
:020000040000fa
:04033400ea020000d9
:020000040000fa
:04033800ea020000d5
:020000040000fa
:04033c00ea020000d1
:020000040000fa
:04034000ea020000cd
:020000040000fa
:10040000af8020000e7f24000e0188000000000055
:10041000000020000000e000020032000001200087
:1004200020028800140007001d0107000000e00002
:1004300003003a00e07a20000100200002003700ab
:100440000000200001002000810f70000100320038
:1004500014000700000020000000e000020032004d
:100460000000020000000000b604020000000000ce
:100470000040da000000fe004440a9000000200017
:100480000000e0000300320000002000a00188000e
:100490004440a800000006008a1f78008b1f7800e7
:1004a0000000060091018800800478000000eb0045
:1004b0001a003700e284440032a0b4009905ba0063
:1004c000e284440032a0b4009906ba00e2844400f9
:1004d00032a0b4000006eb00476fde00fd07b2005b
:1004e000636ce10003003a00ebff07000000eb0043
:1004f0000a003700606ce10004003a00005deb0088
:100500008b05e900fdff3e00040037006168e10053
:10051000010032000086eb000b00070019c7ba008b
:100520001905ba000e04e00003003a000a00e000da
:10053000e0ff3a0000000600fe07b2009e018800be
:100540008a047800f5ff3700395dba008b05e900b1
:100550000c003200295dba008b05e900080032006a
:100560000c00e00003003a00e284440032a0b40032
:10057000f5ff370019ddba008b05e900faff3a00f4
:100580008904e800e184440032a0b40000000600c1
:10059000801f78000000fa008820a90060c2a9002e
:1005a0004013800010408800100020002040880088
:1005b00000138000620060000000e00002003a00ca
:1005c00000408000401388000080fa004f0078004f
:1005d000004006000040da000000fe009440a90040
:1005e00080ff2f008421b6008440a900000006008f
:1005f00094c0a90080ff2f008a21b60084c0a90002
:10060000000006009720a90080ff2f009021b6006f
:100610008720a900000006008440a900e7006000d0
:10062000f28f2f00c808dd00230580000301610060
:1006300068006000028170004300de00220588002f
:1006400061006000b1ff2f004200dd00a2048000c5
:100650008280600081007000a10488000000060014
:1006600084c0a900e7006000f28f2f00c808dd00f9
:1006700033058000030161006800600002817000a2
:100680004300de003205880061006000f1fb2f00ae
:100690004600dd00a20480008280600081007000be
:1006a000a1048800000006008720a900e700600080
:1006b000f2f82f00c408dd0083058000030161000b
:1006c00068006000028170004300de00820588003f
:1006d00061006000f1df2f004900dd00b2048000fe
:1006e0008280600081007000b10488000000060074
:1006f00083ff2f0044182000148a6100010c880039
:10070000120c8800200c88000000060083ff2f00d8
:10071000a4182000148a6100310c8800420c880063
:10072000500c88000000060083ff2f0004192000f1
:10073000148a6100610c8800720c8800800c8800ab
:1007400000000600220c800066016100e60f5100e7
:1007500002003200100c8800010c88000000060026
:10076000520c800066016100e60f51000200320069
:10077000400c8800310c880000000600820c8000cc
:1007800066016100e60f510002003200700c880023
:10079000610c8800000006008820a900e7006000c6
:1007a000f2f82f00c408dd00a305800003016100fa
:1007b00068006000028170004300de00a20588002e
:1007c00061006000d1ff2f0000004000c2048000e3
:1007d0008280600081007000c10488000000060073
:1007e00084e0a900e7006000f2ff2800cc08dd00eb
:1007f0003305800003016100680060000281700021
:100800004300de003205880061006000f1f72f0030
:100810004700dd00a204800082806000810070003b
:10082000a1048800000006008500a900e700600020
:1008300082ff2f0068006000430580000301610013
:100840004300de0002817000610060004205880004
:100850004800dd00f1ef2f00a204800082806000dc
:1008600081007000a1048800000006000621ef004e
:1008700061088800800888001061a9000000060057
:100880000a21ef0071088800900888000000060027
:1008900030088800000006005008880000000600ac
:1008a00000000500839f68000100e00002003d0099
:1008b00060001000e08018000300e00002003d002e
:1008c00060011100e0811900050007004f00e00001
:1008d00002003b0060001000e080180000000600ed
:1008e0006022b800060220000000d0008180d20003
:1008f0000482d2008582d2000000a00002025200d1
:1009000083825a00030031000202420083824a00bf
:100910000000a1000603e900f3ff3a000000060012
:020000040000fa
:100920000400fa00100798009e009000411988000a
:100930002023a80000000000001980006100600072
:100940000000e000fcff32002003a9000118800035
:10095000010f78001e0078004200de00000f7800d2
:100960001e0078000080fa00000006002200fa0055
:100970006000b800008fbe000000eb007007980018
:100980000000eb00000f98000000eb00300798001b
:100990000000eb00400798000000eb00100f9800eb
:1009a0000000eb00200f98000000eb00300f9800d3
:1009b0000040eb00005f98000040eb00105f9800e3
:1009c0000040eb00204f98000040eb00205f9800b3
:1009d0000040eb00304f98000040eb00404f980083
:1009e0000040eb00504f98000040eb00305f980053
:1009f00030c1b300405f980062e2a8000008280000
:100a0000101388000000280000138800e422ef0083
:100a1000e422ef00f1fe070070ff2f00fefe07004a
:100a2000c2122000a112200050ff2d0030ff07004d
:100a3000effe070070ff2f0009ff0700c212200021
:100a4000a112200050ff2d0030ff070070ff2f0083
:100a500063ff07000000eb008dff0700c1122000bc
:100a6000f0f82f0081ff07000000280080088800b0
:100a7000210020000000eb0032ff070021002000d1
:100a80000000eb0036ff0700defe070070ff2f00be
:100a900005ff0700d2ff2f008080eb00d0ff2d0064
:100aa00021ff0700d1ff2f000000eb0033ff0700fc
:100ab00070ff2f005cff07000000eb0076ff0700cf
:100ac0008080eb00f0f82f006dff07000001280088
:100ad00090088800000e2000001988002223ef00f3
:100ae00020f0210020198800a0ff2f006019880045
:100af0000080eb00501988002e23ef003023ef0018
:100b000021e3a800e0ff2f0023ff070005003700c6
:100b10000000000003003700000000000100370063
:100b200000000000d0168000620060000000e000bd
:100b300002003a00e7e2a90001003700e7e2a8005e
:100b4000d116800000042000008060000000e0005a
:100b500005003a00d11680000008200000806000e7
:100b60000000e0000300320010c0b300504f9800b6
:100b7000020037000040eb00504f980020408000fa
:100b8000e10f50009d003a000428ef003040800043
:100b9000e20f500058003200e20f500003003c000a
:100ba000e10f5000230032008b003700e30f5000ac
:100bb0007c003200e40f500087003a000628ef0066
:100bc0004e5890000080fb00004088002e009000ee
:100bd000e10f500003003a0010408000005f9800d1
:100be000860037002e0090000010a20000f0a70041
:100bf0000000ea000000e9004f00de0080407800bd
:100c00002e0090006c00680000f0a7000000ea00d1
:100c10000000e9004f00de000040780000c06800de
:100c20000004e0006e00320010408000304f980059
:100c30007200370011408000210798002e009000bc
:100c40000000a20000f0a7000000ea000000e90098
:100c50004f00de00804078002e0090006b0068009e
:100c600000f0a7000000ea000000e9004f00de00ed
:100c70000040780000c068000004e000020032007c
:100c80000028ef005d0037002e0090000010a20049
:100c900000f0a7000000ea000000e9004f00de00bd
:100ca000804078002e0090006c00680000f0a700e3
:100cb0000000ea000000e9004f00de00004078007c
:100cc00000c068000004e000040032002e489000dc
:100cd0000080fb0000408800480037002e00900094
:100ce000e30f500040003a003e5890000080fb00a7
:100cf00000408800410037002e0090000000a20054
:100d000000f0a7000000ea000000e9004f00de004c
:100d1000804078002e0090006b00680000f0a70073
:100d20000000ea000000e9004f00de00004078000b
:100d300000c068000004e000020032000028ef005c
:100d40002e0037002e0090000010a20000f0a70037
:100d50000000ea000000e9004f00de00804078005b
:100d60002e0090006c00680000f0a7000000ea0070
:100d70000000e9004f00de000040780000c068007d
:100d80000004e000020032000028ef001b003700e2
:100d90002e009000e30f500015003a000028ef00ed
:100da000160037000028ef002e009000e10f5000e1
:100db00003003a0010408000105f98000f003700d9
:100dc0002e009000e20f50000b003a00104080000f
:100dd000404f9800090037000628ef000700370051
:100de000000000000500370000000000030037008d
:100df0000000000001003700000000005e48900085
:100e00000004e00004003a000040eb00404f98006e
:100e10000040eb00304f98004e4890000080fb00ef
:100e2000200f98003e4890000080fb00300f980093
:100e30000000eb00bafe0700700f98007e089000db
:100e4000205f980020002000b5fe070000179800e2
:100e50000e109000204f98001e0890008000eb00bc
:100e60001e0f40005e9748003e0090000000e80022
:100e700030079800be009000401f2000808f500077
:100e800023ff3a000000eb00300798001e00be0070
:100e9000421f20000300200082fe07007007980018
:100ea000fe009000010f98006000b800008fbe00a7
:100eb0000000eb00700798004e0090000000e80072
:100ec000400798004e009000e10f500012ff3a00da
:100ed0000000eb00400798002e0890000000e000a2
:100ee00004003a00210020000000eb001cfe070077
:100ef00009003700d0168000620060000000e000aa
:100f000005003a002e0890000080e800800078007c
:100f10000000eb0012fe07003e0890000000e00019
:100f200004003a00210020000000eb0005fe07004d
:100f3000fcfe3700d0168000620060000000e00078
:100f4000f7fe32003e0890000080e8008000780044
:0c0f50000000eb00fbfd0700f2fe370084
:020000040000fa
:100f5c00080800000200000002000000140000005d
:100f6c000008000008000000000000000000000065
:020000040000fa
:0200000401f009
:04000800ffff0000f6
:020000040000fa
:0200000401f009
:04000c007bff000076
:020000040000fa
:0200000401f009
:040010003eff0000af
:020000040000fa
:0200000401f009
:040014007fff00006a
:00000001FF
