:020000040000fa
:080000000002040000000000f2
:020000040000fa
:10040000ef8020000e7f24000e0188000000000015
:100410000c000700008220000100200011000700ee
:10042000000020000000e000020032000000020096
:100430000000000004050200000000000040da0097
:100440000000fe004440a900000020000000e00081
:100450000300320000002000a00188004440a800f2
:100460000000060091018800800078000000eb0089
:1004700015003700e280400032a0b4009101ba00bc
:10048000e280400032a0b4009102ba00e280400055
:1004900032a0b4000002eb00472bde00f507b200eb
:1004a000602ce10004003a000059eb008301e900f0
:1004b000fdff3e00040037006128e100010032002a
:1004c0000082eb00040007001101ba000200e00006
:1004d000e8ff3a00000006003159ba008301e90044
:1004e0000c0032002159ba008301e90008003200f3
:1004f0000400e00003003a00e280400032a0b400b3
:10050000f5ff370011d9ba008301e900faff3a007c
:100510008100e800e180400032a0b4000000060045
:100520000040da000000fe009440a90084c1bf0032
:1005300081cfb3000140600084e1b7008440a9008e
:100540000000060094c0a9008ac1bf0081cfb3009b
:10055000014060008ae1b70084c0a90000000600e5
:100560009720a90090c1bf0081cfb3000140600077
:1005700090e1b7008720a900000006008440a90090
:10058000e7416000510a20009140780082cfb3001b
:1005900082c0600083c070008000fd00a5e0b7004d
:1005a0008000fd00680060004300de004200dd00c6
:1005b00041092000914078000124a10080c0700012
:1005c0000100780094e0b7000000060084c0a90094
:1005d000e7416000710a20009140780082cfb300ab
:1005e00082c0600083c070008000fd00a7e0b700fb
:1005f0008000fd00680060004300de004600dd0072
:1006000041092000914078000164a10080c0700081
:100610000100780094e0b700000006008720a900e0
:10062000e7416000c419dd00010b20009140780013
:10063000f2c8b30082c0600083c070008000fd007b
:10064000b0e0b7008000fd00680060004300de00fd
:100650000040400071092000914078000114a10081
:1006600080c070000100780097e0b700000006002d
:10067000431820009341780084cfb30084c1610007
:100680008001fd0084e1b7008001fd00010c8800bd
:10069000120c8800200c880000000600a31820001f
:1006a0009341780084cfb30084c161008001fd00d4
:1006b0008ae1b7008001fd00310c8800420c8800ff
:1006c000500c8800000006000319200093417800b8
:1006d00084cfb30084c161008001fd0090e1b700c8
:1006e0008001fd00610c8800720c8800800c88007d
:1006f000000006000001780084c1bf0066006000b1
:10070000e60f500002003200120c8800010c880035
:1007100000000600000178008ac1bf00660060008a
:10072000e60f500002003200420c8800310c8800b5
:10073000000006000001780090c1bf006600600064
:10074000e60f500002003200720c8800610c880035
:10075000000006008820a900e7416000c419dd0000
:10076000410b200091407800f2c8b30082c06000c5
:1007700083c070008000fd00b4e0b7008000fd0081
:10078000680060004300de00004040008109200056
:10079000914078000114a10080c070000100780031
:1007a00098e0b7000000060060c2bf008080eb0048
:1007b0000008a3000800320060c2a90063c2bf00a5
:1007c0000028a3000200320041138000020037001d
:1007d00041138000f10fb200010078000000060014
:1007e0008000780063c2bf000028a30001003a0027
:1007f000f10fb200411388000000060084e0a90058
:10080000e7416000c419dd00710a200091407800c2
:10081000f2c8b30082c0600083c070008000fd0099
:10082000a7e0b7008000fd00680060004300de0024
:100830004700dd0041092000914078000174a100cb
:1008400080c070000100780094e0b700000006004e
:100850008500a900e7416000810a200091407800ee
:1008600082cfb30082c0600083c070008000fd00b2
:10087000a8e0b7008000fd00680060004300de00d3
:1008800051092000914078000104a10080c070004f
:100890000100780095e0b700000006000621ef0097
:1008a00061088800800888001061a9000000060027
:1008b0000a21ef00710888009008880000000600f7
:1008c000300888000000060050088800000006007c
:1008d000839f68000100e00002003d0060001000fe
:1008e000e08018000300e00002003d0060011100fc
:1008f000e0811900050007004f00e00002003b0006
:1009000060001000e0801800000006006022b800bf
:10091000060220000000d0008180d2000482d200b4
:100920008582d2000000a0000202520083825a0099
:10093000030031000202420083824a000000a1004d
:0c0940000603e900f3ff3a000000060087
:020000040000fa
:0200000401f009
:04000800ffff0000f6
:020000040000fa
:0200000401f009
:04000c007bff000076
:020000040000fa
:0200000401f009
:040010003eff0000af
:020000040000fa
:0200000401f009
:040014007fff00006a
:020000040000fa
:1000080090020000900200009002000090020000a0
:100018009002000090020000900200009002000090
:100028009002000090020000900200009002000080
:100038009002000090020000900200009002000070
:100048009002000090020000900200009002000060
:100058009002000090020000900200009002000050
:100068009002000090020000900200009002000040
:100078009002000090020000900200009002000030
:100088009002000090020000900200009002000020
:100098009002000090020000900200009002000010
:1000a80090020000a60400009002000090020000e8
:1000b80090020000900200009002000090020000f0
:1000c80090020000900200009002000090020000e0
:1000d80090020000900200009002000090020000d0
:1000e80090020000900200009002000090020000c0
:1000f80090020000900200009002000090020000b0
:10010800900200009002000090020000900200009f
:10011800900200009002000090020000900200008f
:10012800900200009002000090020000900200007f
:10013800900200009002000090020000900200006f
:10014800900200009002000090020000900200005f
:10015800900200009002000090020000900200004f
:10016800900200009002000090020000900200003f
:10017800900200009002000090020000900200002f
:10018800900200009002000090020000900200001f
:10019800900200009002000090020000900200000f
:1001a80090020000900200009002000090020000ff
:1001b80090020000900200009002000090020000ef
:1001c80090020000900200009002000090020000df
:1001d80090020000900200009002000090020000cf
:1001e80090020000900200009002000090020000bf
:0801f8009002000090020000db
:020000040000fa
:10020800900200009002000090020000900200009e
:10021800900200009002000090020000900200008e
:10022800900200009002000090020000900200007e
:10023800900200009002000090020000900200006e
:10024800900200009002000090020000900200005e
:10025800900200009002000090020000900200004e
:10026800900200009002000090020000900200003e
:10027800900200009002000090020000900200002e
:10028800900200009002000090020000900200001e
:10029800900200009002000090020000900200000e
:1002a80090020000a60400009002000090020000e6
:1002b80090020000900200009002000090020000ee
:1002c80090020000900200009002000090020000de
:1002d80090020000900200009002000090020000ce
:1002e80090020000900200009002000090020000be
:1002f80090020000900200009002000090020000ae
:10030800900200009002000090020000900200009d
:10031800900200009002000090020000900200008d
:10032800900200009002000090020000900200007d
:10033800900200009002000090020000900200006d
:10034800900200009002000090020000900200005d
:10035800900200009002000090020000900200004d
:10036800900200009002000090020000900200003d
:10037800900200009002000090020000900200002d
:10038800900200009002000090020000900200001d
:10039800900200009002000090020000900200000d
:1003a80090020000900200009002000090020000fd
:1003b80090020000900200009002000090020000ed
:1003c80090020000900200009002000090020000dd
:1003d80090020000900200009002000090020000cd
:1003e80090020000900200009002000090020000bd
:0803f8009002000090020000d9
:020000040000fa
:10094c003600f800809fbe00829fbe00849fbe00d0
:10095c00869fbe000000fa008820a90060c2a90092
:10096c00e7e2a8008dff070010408800100020006f
:10097c0050408800604080000000e8006040880023
:10098c0060c2bf00624060000004e00002003a0058
:10099c00204080008fff07000080fa004f03be004c
:1009ac004f02be004f01be004f00be003600f900e2
:1009bc00004006000400fa00100798001e0090008a
:1009cc00401988002023a80020c3bf0061406000ac
:1009dc000004e000fcff32002003a9000018800096
:1009ec00000f78001e0078004200de00000f780037
:1009fc001e0078000080fa00000006002e00fa00ad
:100a0c006000b800700f9800011798000000eb0010
:100a1c00500f98000000eb00400f98000000eb0016
:100a2c00300f98000000eb00200f98000000eb0046
:100a3c00700798000000eb00600798000000eb00c6
:100a4c00500798000040eb00004f98000040eb006e
:100a5c00704798000040eb00604798000040eb00a6
:100a6c00504798000040eb00404798000040eb00d6
:100a7c00304798000040eb00204798000040eb0006
:100a8c001047980030c1b300004f780062e2a80014
:100a9c0000082800101388000000280000138800ac
:100aac000000eb00201788009cfe070070ff2f0051
:100abc00affe0700c2122000a112200050ff2d0033
:100acc00e8fe07009cfe070070ff2f00bcfe07002d
:100adc00c2122000a112200050ff2d00ecfe0700d6
:100aec0070ff2f0042ff07000000eb0071ff0700b2
:100afc00c1122000f0f82f0065ff0700000028004d
:100b0c0080088800210020000000eb00f6fe0700a2
:100b1c00210020000000eb00fbfe07008dfe07000b
:100b2c0070ff2f00bafe0700d2ff2f008080eb0071
:100b3c00d0ff2d00e1fe0700d1ff2f000000eb00dd
:100b4c00f9fe070070ff2f003eff07000000eb00ce
:100b5c005aff07008080eb00f0f82f0051ff0700d0
:100b6c000001280090088800000e20000019880061
:100b7c000000eb001019880020f0210020198800db
:100b8c00a0ff2f00601988000080eb00501988002e
:100b9c000000eb00701988000000eb008019880041
:100bac0021e3a800e0ff2f00e7fe0700000037005c
:100bbc00dac2bf00624060000004e00002003a00ac
:100bcc00e7e2a90001003700e7e2a800dac2bf00a3
:100bdc000044b2000004e00005003a00dac2bf0095
:100bec0001c8b300014060000004e00003003200c3
:100bfc0010c0b30020479800020037000040eb0003
:100c0c002047980050408000e10f5000ad003a00a2
:100c1c000000eb0050408800604080006017980096
:100c2c00ee109000e28f5000640032006e119000c4
:100c3c00e20f510004003c006e109000e10f5000d8
:100c4c00280032009d003700ee109000e38f50001a
:100c5c008c0032006e119000e40f51000100320044
:100c6c00960037000000eb00604088001e80fb00ff
:100c7c00204088006e089000e10f500003003a00fd
:100c8c0010408000004f98008e0037000040eb00b1
:100c9c00306f98006e089000e20f500002003a008e
:100cac0011c0b300316f98000041eb00226f980027
:100cbc006e089000ec0f500002003a0010c0b30018
:100ccc00206f9800be6890002e69900002c06800ea
:100cdc000004e0007b003200104080004047980088
:100cec007800370010408000600f98008040eb00c7
:100cfc00116f98006e089000e10f500002003a004e
:100d0c0012c0b300126f98000040eb00006f980007
:100d1c006e089000eb0f500002003a0011c0b300b7
:100d2c00016f98001e6990008e6890000140690068
:100d3c000004e000030032000000eb0020408800bb
:100d4c00600037000041eb00726798006e0890005d
:100d5c00e20f500002003a0010c0b3007067980018
:100d6c008040eb00616798006e089000ec0f50001b
:100d7c0002003a0012c0b30062679800fe60900057
:100d8c006e61900002c068000004e00004003200b4
:100d9c006e4090000080fb00204088004900370026
:100dac006e089000e30f500046003a001e40900081
:100dbc000080fb0020408800420037000040eb0020
:100dcc00506798006e089000e10f500002003a0046
:100ddc0011c0b300516798000041eb0042679800c6
:100dec006e089000eb0f500002003a0010c0b300e8
:100dfc0040679800de6090004e61900002c0680071
:100e0c000004e000030032000000eb0020408800ea
:100e1c002c0037000040eb00306798006e08900003
:100e2c00e20f500002003a0011c0b3003167980085
:100e3c000041eb00226798006e089000ec0f500008
:100e4c0002003a0010c0b30020679800be6090000a
:100e5c002e61900002c068000004e0000300320024
:100e6c000000eb0020408800160037006e08900050
:100e7c00e30f500013003a000000eb002040880004
:100e8c00100037000000eb00204088006e08900036
:100e9c00e10f500003003a001040800070479800aa
:100eac00080037006e089000e20f500005003a0071
:100ebc001040800030479800020037000000eb0023
:100ecc00604088002e4090000004e00004003a00ce
:100edc000040eb00304798000040eb004047980082
:100eec003e4090000080fb00600798004e40900050
:100efc000080fb00500798000000eb00adfe0700df
:100f0c00100f98001e0890005047980020002000f9
:100f1c00a8fe0700000f98000e089000604798008c
:100f2c007e0090006101b8007e0890008e10900049
:100f3c000000410081804900700f98000117980053
:100f4c003e0890000000e800300f9800be089000aa
:100f5c00401f2000808f500015ff3a000000eb006e
:100f6c00300f98007e0890008e109000421f2000d9
:100f7c000300200053fe0700500f98005e089000fd
:100f8c00400f98006000b800700f9800011798008f
:100f9c000000eb00500f98002e0890000000e800b5
:100fac00200f98002e089000e10f500000ff3a002f
:100fbc000000eb00200f98006e0090000000e00095
:100fcc0004003a00210020000000eb00cefd0700d9
:100fdc0008003700dac2bf00624060000004e00085
:100fec0004003a006e0090008080e8000000eb00e6
:100ffc00c5fd07005e0090000000e00004003a0010
:10100c00210020000000eb00b7fd0700e8fe3700d0
:10101c00dac2bf00624060000004e000e4fe32006f
:10102c005e0090008080e8000000eb00aefd070041
:04103c00dffe37009c
:020000040000fa
:101040000a08000004000000020000000000000088
:1010500000000000000800000a000000000000007e
:04106000000000008c
:00000001FF
