:020000040000fa
:080000000002040000000000f2
:020000040000fa
:10040000ef8020000e7f24000e0188000000000015
:100410000c000700208520000100200011000700cb
:10042000000020000000e000020032000000020096
:1004300000000000a6040200000000000040da00f6
:100440000000fe004440a900000020000000e00081
:100450000300320000002000a00188004440a800f2
:100460000000060091018800800078000000eb0089
:1004700015003700e280400032a0b4009101ba00bc
:10048000e280400032a0b4009102ba00e280400055
:1004900032a0b4000002eb00472bde00f507b200eb
:1004a000602ce10004003a000059eb008301e900f0
:1004b000fdff3e00040037006128e100010032002a
:1004c0000082eb00040007001101ba000200e00006
:1004d000e8ff3a00000006003159ba008301e90044
:1004e0000c0032002159ba008301e90008003200f3
:1004f0000400e00003003a00e280400032a0b400b3
:10050000f5ff370011d9ba008301e900faff3a007c
:100510008100e800e180400032a0b4000000060045
:100520000040da000000fe009440a90084c1bf0032
:1005300081cfb3000140600084e1b7008440a9008e
:100540000000060094c0a9008ac1bf0081cfb3009b
:10055000014060008ae1b70084c0a90000000600e5
:100560009720a90090c1bf0081cfb3000140600077
:1005700090e1b7008720a900000006008440a90090
:10058000e7416000510a20009140780082cfb3001b
:1005900082c0600083c070008000fd00a5e0b7004d
:1005a0008000fd00680060004300de004200dd00c6
:1005b00041092000914078000124a10080c0700012
:1005c0000100780094e0b7000000060084c0a90094
:1005d000e7416000710a20009140780082cfb300ab
:1005e00082c0600083c070008000fd00a7e0b700fb
:1005f0008000fd00680060004300de004600dd0072
:1006000041092000914078000164a10080c0700081
:100610000100780094e0b700000006008720a900e0
:10062000e7416000c419dd00010b20009140780013
:10063000f2c8b30082c0600083c070008000fd007b
:10064000b0e0b7008000fd00680060004300de00fd
:100650000040400071092000914078000114a10081
:1006600080c070000100780097e0b700000006002d
:10067000431820009341780084cfb30084c1610007
:100680008001fd0084e1b7008001fd00010c8800bd
:10069000120c8800200c880000000600a31820001f
:1006a0009341780084cfb30084c161008001fd00d4
:1006b0008ae1b7008001fd00310c8800420c8800ff
:1006c000500c8800000006000319200093417800b8
:1006d00084cfb30084c161008001fd0090e1b700c8
:1006e0008001fd00610c8800720c8800800c88007d
:1006f000000006000001780084c1bf0066006000b1
:10070000e60f500002003200120c8800010c880035
:1007100000000600000178008ac1bf00660060008a
:10072000e60f500002003200420c8800310c8800b5
:10073000000006000001780090c1bf006600600064
:10074000e60f500002003200720c8800610c880035
:10075000000006008820a900e7416000c419dd0000
:10076000410b200091407800f2c8b30082c06000c5
:1007700083c070008000fd00b4e0b7008000fd0081
:10078000680060004300de00004040008109200056
:10079000914078000114a10080c070000100780031
:1007a00098e0b7000000060060c2bf008080eb0048
:1007b0000008a3000800320060c2a90063c2bf00a5
:1007c0000028a3000200320041138000020037001d
:1007d00041138000f10fb200010078000000060014
:1007e0008000780063c2bf000028a30001003a0027
:1007f000f10fb200411388000000060084e0a90058
:10080000e7416000c419dd00710a200091407800c2
:10081000f2c8b30082c0600083c070008000fd0099
:10082000a7e0b7008000fd00680060004300de0024
:100830004700dd0041092000914078000174a100cb
:1008400080c070000100780094e0b700000006004e
:100850008500a900e7416000810a200091407800ee
:1008600082cfb30082c0600083c070008000fd00b2
:10087000a8e0b7008000fd00680060004300de00d3
:1008800051092000914078000104a10080c070004f
:100890000100780095e0b700000006000621ef0097
:1008a00061088800800888001061a9000000060027
:1008b0000a21ef00710888009008880000000600f7
:1008c000300888000000060050088800000006007c
:1008d000839f68000100e00002003d0060001000fe
:1008e000e08018000300e00002003d0060011100fc
:1008f000e0811900050007004f00e00002003b0006
:1009000060001000e0801800000006006022b800bf
:10091000060220000000d0008180d2000482d200b4
:100920008582d2000000a0000202520083825a0099
:10093000030031000202420083824a000000a1004d
:0c0940000603e900f3ff3a000000060087
:020000040000fa
:0200000401f009
:04000800ffff0000f6
:020000040000fa
:0200000401f009
:04000c007bff000076
:020000040000fa
:0200000401f009
:040010003eff0000af
:020000040000fa
:0200000401f009
:040014007fff00006a
:020000040000fa
:1000080090020000900200009002000090020000a0
:100018009002000090020000900200009002000090
:100028009002000090020000900200009002000080
:100038009002000090020000900200009002000070
:100048009002000090020000900200009002000060
:100058009002000090020000900200009002000050
:100068009002000090020000900200009002000040
:100078009002000090020000900200009002000030
:100088009002000090020000900200009002000020
:100098009002000090020000900200009002000010
:1000a8009002000018080000900200009002000072
:1000b80090020000900200009002000090020000f0
:1000c80090020000900200009002000090020000e0
:1000d80090020000900200009002000090020000d0
:1000e80090020000900200009002000090020000c0
:1000f80090020000900200009002000090020000b0
:10010800900200009002000090020000900200009f
:10011800900200009002000090020000900200008f
:10012800900200009002000090020000900200007f
:10013800900200009002000090020000900200006f
:10014800900200009002000090020000900200005f
:10015800900200009002000090020000900200004f
:10016800900200009002000090020000900200003f
:10017800900200009002000090020000900200002f
:10018800900200009002000090020000900200001f
:10019800900200009002000090020000900200000f
:1001a80090020000900200009002000090020000ff
:1001b80090020000900200009002000090020000ef
:1001c80090020000900200009002000090020000df
:1001d80090020000900200009002000090020000cf
:1001e80090020000900200009002000090020000bf
:0801f8009002000090020000db
:020000040000fa
:10020800900200009002000090020000900200009e
:10021800900200009002000090020000900200008e
:10022800900200009002000090020000900200007e
:10023800900200009002000090020000900200006e
:10024800900200009002000090020000900200005e
:10025800900200009002000090020000900200004e
:10026800900200009002000090020000900200003e
:10027800900200009002000090020000900200002e
:10028800900200009002000090020000900200001e
:10029800900200009002000090020000900200000e
:1002a8009002000018080000900200009002000070
:1002b80090020000900200009002000090020000ee
:1002c80090020000900200009002000090020000de
:1002d80090020000900200009002000090020000ce
:1002e80090020000900200009002000090020000be
:1002f80090020000900200009002000090020000ae
:10030800900200009002000090020000900200009d
:10031800900200009002000090020000900200008d
:10032800900200009002000090020000900200007d
:10033800900200009002000090020000900200006d
:10034800900200009002000090020000900200005d
:10035800900200009002000090020000900200004d
:10036800900200009002000090020000900200003d
:10037800900200009002000090020000900200002d
:10038800900200009002000090020000900200001d
:10039800900200009002000090020000900200000d
:1003a80090020000900200009002000090020000fd
:1003b80090020000900200009002000090020000ed
:1003c80090020000900200009002000090020000dd
:1003d80090020000900200009002000090020000cd
:1003e80090020000900200009002000090020000bd
:0803f8009002000090020000d9
:020000040000fa
:10094c006400fa000000eb00602798000000eb0048
:10095c00402798000000eb00302798006000b8009a
:10096c0010279800212798000000eb000027980022
:10097c000000eb00301f98000000eb00201f9800d7
:10098c000000eb00101f98000000eb00001f980007
:10099c000000eb00701798000000eb006017980047
:1009ac000000eb00501798000000eb004017980077
:1009bc000000eb00301798000000eb0020179800a7
:1009cc000040eb00206798000000eb00400f9800ff
:1009dc000000eb00300f98000000eb00200f980097
:1009ec0050012000100f98000000eb00000f980041
:1009fc000000eb00700798000000eb006007980007
:100a0c000040eb00304f98000040eb00204f980066
:100a1c000040eb00104f98000040eb00004f980096
:100a2c000040eb00704798000040eb0060479800d6
:100a3c000040eb00504798000040eb004047980006
:100a4c000040eb00304798000040eb002047980036
:100a5c000040eb001047980030c1b300004f780005
:100a6c0062e2a8000008280010138800000028008b
:100a7c00001388000000eb0020178800a7fe070079
:100a8c0070ff2f00bafe0700c2122000a112200036
:100a9c0050ff2d00f3fe0700a7fe070070ff2f008c
:100aac00c7fe0700c2122000a112200050ff2d002b
:100abc00f7fe070070ff2f004dff07000000eb0052
:100acc007cff0700c1122000f0f82f0070ff070018
:100adc000000280080088800210020000000eb00a6
:100aec0001ff0700210020000000eb0006ff0700bb
:100afc0098fe070070ff2f00c5fe0700d2ff2f00e5
:100b0c008080eb00d0ff2d00ecfe0700d1ff2f0002
:100b1c000000eb0004ff070070ff2f0049ff0700e7
:100b2c000000eb0065ff07008080eb00f0f82f0061
:100b3c005cff07000001280090088800000e2000d0
:100b4c00001988000000eb001019880020f021002b
:100b5c0020198800a0ff2f00601988000080eb008e
:100b6c00501988000000eb00701988000000eb00a1
:100b7c008019880021e3a800e0ff2f00f2fe070097
:100b8c0000003700dac2bf00624060000004e000e1
:100b9c0002003a00e7e2a90001003700e7e2a800f2
:100bac00dac2bf000044b2000004e00005003a00c5
:100bbc00dac2bf0001c8b300014060000004e000cd
:100bcc000300320010c0b300304798000200370019
:100bdc000040eb003047980050408000e10f50007f
:100bec009e003a000000eb0050408800e7e2a900ac
:100bfc0060408000e40f50001f003a000000eb0042
:100c0c00604088001e80fb00204088007e18900009
:100c1c00e10f500002003a0010408000104f980085
:100c2c000040eb0030e798007e189000e20f500077
:100c3c0002003a0011c0b30031e798000041eb000c
:100c4c0022e798007e189000ec0f500002003a004a
:100c5c0010c0b30020e79800bee090002ee1900099
:100c6c0002c068000004e0007c00320010408000ec
:100c7c00504798007900370060408000e10f500029
:100c8c0034003a0010408000701f98008040eb0048
:100c9c0011e798007e189000e10f500002003a0016
:100cac0012c0b30012e798000040eb0000e7980078
:100cbc007e189000eb0f500002003a0011c0b300f8
:100ccc0001e798001ee190008ee090000140690061
:100cdc000004e000020032000000eb00204088001d
:100cec000041eb0072df98007e189000e20f50007c
:100cfc0002003a0010c0b30070df98008040eb0097
:100d0c0061df98007e189000ec0f500002003a0052
:100d1c0012c0b30062df9800fed890006ed990002c
:100d2c0002c068000004e000030032007e40900026
:100d3c000080fb00204088007e189000e30f5000dc
:100d4c0046003a001e4090000080fb0020408800c6
:100d5c004200370060408000e20f500030003a0043
:100d6c000040eb0050df98007e189000e10f50001f
:100d7c0002003a0011c0b30051df98000041eb00b3
:100d8c0042df98007e189000eb0f500002003a00f2
:100d9c0010c0b30040df9800ded890004ed9900010
:100dac0002c068000004e000020032000000eb000a
:100dbc00204088000040eb0030df98007e18900047
:100dcc00e20f500002003a0011c0b30031df98006e
:100ddc000041eb0022df98007e189000ec0f5000d1
:100dec0002003a0010c0b30020df9800bed890007b
:100dfc002ed9900002c068000004e000020032000e
:100e0c000000eb00204088007e189000e30f50009b
:100e1c0012003a000000eb00204088000f00370061
:100e2c0060408000e30f50000c003a000000eb0023
:100e3c00204088007e189000e10f500002003a001c
:100e4c0010408000004f98007e189000e20f500078
:100e5c0002003a0010408000404798003e4090004d
:100e6c000004e00004003a000040eb00404798000a
:100e7c000040eb00504798004e4090000080fb0073
:100e8c00700798005e4090000080fb00600798009f
:100e9c000000eb00401988002023a80020c3bf00ed
:100eac00614060000004e000fcff32002003a90058
:100ebc0000188000700f98007e0890004200de0041
:100ecc00700f98007e08900060479800200020006a
:100edc00401988002023a80020c3bf006140600097
:100eec000004e000fcff32002003a9000118800080
:100efc00010f980002188000620f98006e08900095
:100f0c004200de00600f98006e0890007047980059
:100f1c000e0890006101b8001e209000ae209000d9
:100f2c00000041008180490010279800212798007b
:100f3c003e1090000000e80030179800be109000a2
:100f4c00401f2000808f50000eff3a000000eb0085
:100f5c00301798001e209000ae209000421f2000f9
:100f6c000300200057fe0700301f98003e18900029
:100f7c00201f98006000b8001027980021279800c7
:100f8c000000eb00301f98002e1090000000e800cd
:100f9c00201798002e109000e10f5000f9fe3a0037
:100fac000000eb00201798007e0090000000e0008d
:100fbc0004003a00210020000000eb00d2fd0700e5
:100fcc0008003700dac2bf00624060000004e00095
:100fdc0004003a007e0090008080e8000000eb00e6
:100fec00c9fd07006e0090000000e00004003a000c
:100ffc00210020000000eb00bbfd0700e1fe3700e4
:10100c00dac2bf00624060000004e000ddfe320086
:10101c006e0090008080e8000000eb00b2fd07003d
:10102c00d8fe37003600f800809fbe00829fbe00bd
:10103c00849fbe00869fbe000000fa008820a90095
:10104c0060c2a900e7e2a800d4fd070010408800a8
:10105c001000200050408800604080000000e80034
:10106c006040880060c2bf00624060000004e00085
:10107c0002003a0020408000d6fd07000080fa00f4
:10108c004f03be004f02be004f01be004f00be001a
:08109c003600f90000400600d7
:020000040000fa
:1010a4000a08000004000000020000000000000024
:1010b40000000000000800000a000000000000001a
:0410c4000000000028
:00000001FF
